:1000000045C0000060C000005EC000005CC0000091
:1000100057C4000058C0000056C0000054C0000083
:1000200052C0000050C000004EC000004CC0000094
:100030004AC0000048C0000046C0000044C00000A4
:1000400042C0000040C0000024C400003CC00000CA
:10005000BFC3000038C0000036C0000034C000003C
:1000600032C0000030C000002EC000002CC00000D4
:100070002AC0000028C0000026C0000024C00000E4
:10008000E4C30000F4C300001EC0000011241FBE22
:10009000CFEFD0E4DEBFCDBF11E0A0E0B1E0E8E0FB
:1000A000FFE000E00BBF02C007900D92A83CB10733
:1000B000D9F722E0A8ECB1E001C01D92A431B2074B
:1000C000E1F72BD51FC79CCF92B19F70282F207FBF
:1000D000922B92B992B19E7F92B992B1926092B9ED
:1000E00035E03A95F1F792B19D7F92B9E1EEF2E0F9
:1000F0003197F1F7000022B1F0E18F9FC001112488
:10010000922F9F70892B82B982B1826082B935E0CB
:100110003A95F1F782B18D7F82B98CEC9CE1019721
:10012000F1F700C00000089592B19F70282F207F42
:10013000922B92B992B1916092B992B1926092B9B8
:1001400035E03A95F1F792B19D7F92B9E1EEF2E098
:100150003197F1F7000022B1F0E18F9FC001112427
:10016000922F9F70892B82B982B1826082B935E06B
:100170003A95F1F782B18D7F82B98CEC9CE10197C1
:10018000F1F700C0000008950F931F93CF93DF9302
:100190008C01C0E0D0E002C0C7DF2196F801EC0F6F
:1001A000FD1F80818111F8CFDF91CF911F910F91B9
:1001B00008958FEF81B926E686EE90E021508040C9
:1001C0009040E1F782E080DF88E27EDF8CE07CDF38
:1001D00086E07ADF81E078DF8CEC9CE10197F1F733
:1001E00000C00000089581E06FDF8CEC9CE1019776
:1001F000F1F700C0000080E867CF089585B58460FE
:1002000085BDEEE6F0E08081816080830895E0E8BE
:10021000F0E08081816A8083E1E8F0E0808189609C
:100220008083109289001092880010928B001092A7
:100230008A0008958FEF8093B400E0EBF0E08081B6
:1002400083628083E1EBF0E08081856080830895A4
:10025000E6E9F0E08FEF90EE9183808380819181D9
:1002600001969093990080939800808191810196E6
:1002700090939B0080939A00E1E9F0E080818C618B
:100280008083E1E7F0E0808186608083089587E0E5
:1002900090E09093C5008093C40088E98093C100EA
:1002A00086E08093C20008959091C00095FFFCCF36
:1002B0008093C6000895CF93DF93EC0102C021968E
:1002C000F3DF88818111FBCFDF91CF910895F894FE
:1002D00062E071E088ED91E0FBD5892BD9F083DFF6
:1002E00082E091E051DF85B18E7F85B985B18D7F48
:1002F00085B987E990E09093890080938800909376
:100300008B0080938A0081E090E09093D5018093E8
:10031000D4015CC26AE071E088ED91E0D9D5892B07
:10032000D9F061DF8AE091E02FDF85B1816085B986
:1003300085B1826085B987E990E0909389008093C8
:10034000880090938B0080938A0081E090E09093E6
:10035000D3018093D2013AC261E171E088ED91E06E
:10036000B7D5892BF9F03FDF81E191E00DDF85B151
:100370008E7F85B985B18D7F85B9109289001092E5
:10038000880010928B0010928A001092D301109274
:10039000D2011092D5011092D4011092D101109285
:1003A000D00114C267E171E088ED91E091D5892B0D
:1003B00009F446C018DF87E191E0E6DE8091D401C0
:1003C0009091D501892B39F48091D2019091D3017C
:1003D000892B09F4FBC18091D0019091D101892B27
:1003E000A9F4EAE8F0E0808191819093CF018093B5
:1003F000CE011182108281E090E09093D101809330
:10040000D0011092010110920001E0C18091000121
:1004100090910101892B09F0D9C18091CE01909171
:10042000CF0190938B0080938A001092D10110929B
:10043000D0018FEF9FEF9093010180930001C6C11F
:100440006EE171E088ED91E043D5892B09F446C057
:10045000CADE8EE191E098DE8091D4019091D501C1
:10046000892B39F48091D2019091D301892B09F421
:10047000ADC18091D0019091D101892BA9F4E8E818
:10048000F0E0808191819093CF018093CE01118221
:10049000108281E090E09093D1018093D0019093FD
:1004A00001018093000192C18091000190910101AE
:1004B000019709F08BC18091CE019091CF0190936B
:1004C0008900809388001092D1011092D0018FEFA3
:1004D0009FEF909301018093000178C166E271E083
:1004E00088ED91E0F5D4892B79F17DDE86E291E00B
:1004F0004BDE80918800909189008F3F910541F4F7
:1005000080918A0090918B008F3F910509F45EC124
:100510008091D4019091D501019739F08091D20159
:100520009091D301019709F051C1E8E8F0E0808192
:1005300091814A9691838083EAE8F0E080819181FD
:100540004A969183808342C16EE271E088ED91E02A
:10055000BFD4892B79F147DE8EE291E015DE8091E0
:100560008800909189008739910541F480918A0033
:1005700090918B008739910509F428C18091D401AD
:100580009091D501019739F08091D2019091D301DA
:10059000019709F01BC1E8E8F0E0808191814A975A
:1005A00091838083EAE8F0E0808191814A9791838A
:1005B00080830CC167E371E088ED91E089D4892BD9
:1005C00049F011DE87E391E0DFDD98B181E0892712
:1005D00088B9FCC06EE371E088ED91E079D4892B95
:1005E00009F449C000DE8EE391E0CEDD8091CC01BC
:1005F0009091CD010097E9F481E090E09093CD01D6
:100600008093CC011092950010929400E6E9F0E0FE
:100610008081918196958795909399008093980019
:10062000808191819695879590939B0080939A0005
:10063000CDC0019709F0CAC01092950010929400A5
:10064000E6E9F0E080819181019690939900809392
:10065000980080819181019690939B0080939A00ED
:100660008BB18B7F8BB98BB1877F8BB91092CD010A
:100670001092CC01ABC065E471E088ED91E028D424
:10068000892B09F445C0AFDD85E491E07DDD8091E3
:10069000CC019091CD01019709F498C08091CA01D5
:1006A0009091CB01892BE1F4109295001092940067
:1006B000E6E9F0E080819181019690939B00809320
:1006C0009A00808191819695879590939900809367
:1006D000980081E090E09093CB018093CA0176C0AE
:1006E000109295001092940080919600909197003E
:1006F000019690939900809398008BB18B7F8BB972
:100700008BB1877F8BB91092CB011092CA015EC06A
:100710006CE471E088ED91E0DBD3892B09F445C0EE
:1007200062DD8CE491E030DD8091CC019091CD01CF
:10073000019709F44BC08091C8019091C901892BA0
:10074000E1F41092950010929400E6E9F0E08081C7
:100750009181019690939900809398008081918176
:100760009695879590939B0080939A0081E090E006
:100770009093C9018093C80129C0109295001092EE
:1007800094008091960090919700019690939B0021
:1007900080939A008BB18B7F8BB98BB1877F8BB99C
:1007A0001092C9011092C80111C063E571E088ED93
:1007B00091E08ED3892B51F016DD83E591E0E4DCE6
:1007C000E4EBF0E090818FE7891B808378940895B3
:1007D0001F920F920FB60F9211240BB60F922F9308
:1007E0004F935F938F939F93EF93FF932091C60056
:1007F0008091D6019091D701823391055CF4AC01D0
:100800004F5F5F4F5093D7014093D601FC01E852F0
:10081000FE4F2083E091D601F091D701E852FE4FC0
:10082000108281E090E090930B0280930A02FF9186
:10083000EF919F918F915F914F912F910F900BBEF0
:100840000F900FBE0F901F9018951F920F920FB62A
:100850000F9211248F939F939BB184E089278BB9CA
:100860009F918F910F900FBE0F901F9018951F9220
:100870000F920FB60F9211248F939F939BB188E034
:1008800089278BB99F918F910F900FBE0F901F906A
:1008900018951F920F920FB60F9211248F939F936A
:1008A0008091100290911102019690931102809311
:1008B00010029F918F910F900FBE0F901F9018956F
:1008C0001F920F920FB60F9211248F939F93039B49
:1008D00006C016BC109211021092100214C086B508
:1008E00090E090930F0280930E02809110029091FD
:1008F000110290930D0280930C0281E090E090939E
:100900001302809312029F918F910F900FBE0F9050
:100910001F90189581B1846081B981B1877F81B9B9
:1009200082B18B7F82B9E8E6F0E0808181608083CC
:10093000EBE6F0E080818860808308958AB180636F
:100940008AB984B1836084B908958AB18C608AB908
:100950008BB18B7F8BB98BB1877F8BB987B181606E
:1009600087B908958AB180648AB98BB180648BB9E4
:100970000895CF92DF92EF92FF92CF93DF93C1E081
:10098000D0E0C12CD12C760154C0109213021092E9
:10099000120282B18B7F82B928E12A95F1F700C05B
:1009A00082B1846082B986E38A95F1F7000082B152
:1009B0008B7F82B98091120290911302892B31F4BE
:1009C00080911002909111020697A4F380910C027D
:1009D00090910D022FEF289FB001299F700D1124D7
:1009E00080910E0290910F02680F791F072E000C64
:1009F000880B990B4BD120E030E040E851E4FAD16C
:100A000022E430E645E65CE3F5D19B01AC01C70189
:100A1000B601D2D06B017C011C161D064CF09FEF75
:100A20002FE583E0915020408040E1F700C00000B6
:100A30002196C230D1050CF4A8CFC701B601DF91D1
:100A4000CF91FF90EF90DF90CF900895CF93DF93F9
:100A500078948AE591E02FDC2FEF3FE784E0215086
:100A600030408040E1F700C0000088E691E023DCE0
:100A70009FEFEFE7F4E09150E040F040E1F700C075
:100A8000000087E791E017DC2FEF3FE784E021507B
:100A900030408040E1F700C0000085E891E00BDCC9
:100AA0009FEFEFE7F6E021E09150E040F04020407A
:100AB000D9F700C0000085EA91E0FDDB3FEF8FE74A
:100AC00094E0315080409040E1F700C00000109267
:100AD000D7011092D6018AEB91E0EDDBEFEFFFEF4B
:100AE00026E8E150F0402040E1F700C0000062E25B
:100AF00070E088ED91E0E1D1EC01892B39F021968D
:100B000062E270E0CE01D9D1FC0110826CDBCE0133
:100B10003BDBF894DF91CF910895B9DB6FDB77DB96
:100B200089DB96DB46DB0ADF10DF1CDF2FEF8FEF60
:100B30009CE2215080409040E1F700C0000086DF39
:100B4000E9DE78942FEF8FE794E0215080409040C9
:100B5000E1F700C000000DDF6B017C0120E030E018
:100B6000A90144D11816BCF420E030E040EA51E479
:100B7000C701B60185D0882374F485B18E7F85B90D
:100B800085B18D7F85B910928900109288001092EE
:100B90008B0010928A0080910A0290910B020197BB
:100BA00089F61092D7011092D60191DB10920B02B8
:100BB00010920A02C7CF5058BB27AA270ED0DCC01C
:100BC000CDD030F0D2D020F031F49F3F11F41EF49C
:100BD000C2C00EF4E095E7FBB8C0E92FDED080F389
:100BE000BA17620773078407950718F071F49EF52A
:100BF000F6C00EF4E0950B2EBA2FA02D0B01B90113
:100C000090010C01CA01A0011124FF27591B99F082
:100C1000593F50F4503E68F11A16F040A22F232F8E
:100C2000342F4427585FF3CF469537952795A795DE
:100C3000F0405395C9F77EF41F16BA0B620B730B85
:100C4000840BBAF09150A1F0FF0FBB1F661F771FF6
:100C5000881FC2F70EC0BA0F621F731F841F48F4AB
:100C6000879577956795B795F7959E3F08F0B3CF31
:100C70009395880F08F09927EE0F9795879508951B
:100C800040D008F481E00895E89409C097FB3EF451
:100C900090958095709561957F4F8F4F9F4F9923C9
:100CA000A9F0F92F96E9BB279395F6958795779547
:100CB0006795B795F111F8CFFAF4BB0F11F460FF07
:100CC0001BC06F5F7F4F8F4F9F4F16C0882311F05F
:100CD00096E911C0772321F09EE8872F762F05C073
:100CE000662371F096E8862F70E060E02AF09A950E
:100CF000660F771F881FDAF7880F9695879597F903
:100D00000895990F0008550FAA0BE0E8FEEF16169C
:100D10001706E807F907C0F012161306E407F507EF
:100D200098F0621B730B840B950B39F40A2661F063
:100D3000232B242B252B21F408950A2609F4A14006
:100D4000A6958FEF811D811D089597F99F6780E813
:100D500070E060E008959FEF80EC089500240A940D
:100D60001616170618060906089500240A94121686
:100D70001306140605060895092E0394000C11F4B9
:100D8000882352F0BB0F40F4BF2B11F460FF04C066
:100D90006F5F7F4F8F4F9F4F089557FD9058440FBF
:100DA000551F59F05F3F71F04795880F97FB991FCA
:100DB00061F09F3F79F08795089512161306140687
:100DC000551FF2CF4695F1DF08C016161706180614
:100DD000991FF1CF86957105610508940895E894EF
:100DE000BB2766277727CB0197F908958ADF08F498
:100DF0008FEF08950BD0C0CFB1DF28F0B6DF18F029
:100E0000952309F0A2CFA7CF1124EACFC6DFA0F324
:100E1000959FD1F3950F50E0551F629FF001729F8F
:100E2000BB27F00DB11D639FAA27F00DB11DAA1FAE
:100E3000649F6627B00DA11D661F829F2227B00DFB
:100E4000A11D621F739FB00DA11D621F839FA00D86
:100E5000611D221F749F3327A00D611D231F849FD6
:100E6000600D211D822F762F6A2F11249F5750402D
:100E70008AF0E1F088234AF0EE0FFF1FBB1F661FC8
:100E8000771F881F91505040A9F79E3F510570F081
:100E90005CCFA6CF5F3FECF3983EDCF38695779569
:100EA0006795B795F795E7959F5FC1F7FE2B880F7C
:100EB000911D9695879597F90895FC018191861764
:100EC00021F08823D9F7992708953197CF01089504
:100ED000FB0151915523A9F0BF01DC014D9145174C
:100EE0004111E1F759F4CD010190002049F04D91F5
:100EF00040154111C9F3FB014111EFCF81E090E0B2
:080F000001970895F894FFCF5A
:100F0800FFFF696E61696E746500696E61706F6973
:100F1800006672616E61007374616E67610064726D
:100F28006561707461007370656564757000736CD9
:100F38006F77646F776E00666172757269006176AB
:100F4800617269690073656D5F64720073656D5FD6
:100F5800737400636C61786F6E0041542B43574D76
:100F68004F44453D330D0A0041542B4349504D4FE2
:100F780044453D300D0A0041542B4349504D5558C6
:100F88003D310D0A0041542B43574A41503D2247F9
:100F9800616C617879222C22313233343536373816
:100FA80039220D0A0041542B4349505345525645A6
:100FB800523D312C3130310D0A0041542B434950F8
:080FC8005354413F0D0A0000E3
:00000001FF
