S01600004D6173696E7574615F57692D46692E73726563D1
S1130000C2C00000DEC00000DCC00000DAC0000096
S1130010A9C40000D6C00000D4C00000D2C00000B3
S1130020D0C00000CEC00000CCC00000CAC0000098
S1130030C8C00000C6C00000C4C00000C2C00000A8
S1130040C0C00000BEC0000076C40000BAC00000FA
S113005011C40000B6C00000B4C00000B2C000006B
S1130060B0C00000AEC00000ACC00000AAC00000D8
S1130070A8C00000A6C00000A4C00000A2C00000E8
S113008048C4000034C400009CC0000000407A1042
S1130090F35A00A0724E18090010A5D4E80000E835
S11300A07648170000E40B54020000CA9A3B000093
S11300B000E1F505000080969800000040420F0022
S11300C00000A08601000000102700000000E803E3
S11300D0000000006400000000000A0000000000AE
S11300E00100000000002C76D888DC674F0823DF6D
S11300F0C1DFAE59E1B1B796E5E3E453C63AE65140
S1130100997696E8E6C28426EB898C9B62ED407C66
S11301106FFCEFBC9C9F40F2BAA56FA5F490055A02
S11301202AF75C936B6CF9676DC11BFCE0E40D4727
S1130130FEF520E6B500D0ED902E0300943577054A
S11301400080841E080000204E0A000000C80C3302
S11301503333330F986E12831141EF8D2114893B91
S1130160E65516CFFEE6DB18D1844B381BF77C1D11
S1130170901DA4BBE424203284725E228100C9F164
S113018024ECA1E53D2711241FBECFEFD0E4DEBF50
S1130190CDBF12E0A0E0B1E0EAE9F3E100E00BBF7B
S11301A002C007900D92A434B107D9F722E0A4E469
S11301B0B2E001C01D92AE38B207E1F7C7D40C9487
S11301C0CB091ECF92B19F70282F207F922B92B91A
S11301D092B19E7F92B992B1926092B935E03A950C
S11301E0F1F792B19D7F92B9E1EEF2E03197F1F728
S11301F0000022B1F0E18F9FC0011124922F9F7063
S1130200892B82B982B1826082B935E03A95F1F7DF
S113021082B18D7F82B98CEC9CE10197F1F700C02B
S11302200000089592B19F70282F207F922B92B9DD
S113023092B1916092B992B1926092B935E03A95D7
S1130240F1F792B19D7F92B9E1EEF2E03197F1F7C7
S1130250000022B1F0E18F9FC0011124922F9F7002
S1130260892B82B982B1826082B935E03A95F1F77F
S113027082B18D7F82B98CEC9CE10197F1F700C0CB
S1130280000008950F931F93CF93DF938C01C0E078
S1130290D0E002C0C7DF2196F801EC0FFD1F80817A
S11302A08111F8CFDF91CF911F910F9108958FEFB6
S11302B081B926E686EE90E0215080409040E1F737
S11302C082E080DF88E27EDF8CE07CDF86E07ADF1C
S11302D081E078DF8CEC9CE10197F1F700C000002D
S11302E0089581E06FDF8CEC9CE10197F1F700C089
S11302F0000080E867CF089585B5846085BDEEE68B
S1130300F0E08081816080830895E0E8F0E08081FE
S1130310816A8083E1E8F0E08081896080831092C3
S113032089001092880010928B0010928A00089520
S11303308FEF8093B400E0EBF0E0808183628083F0
S1130340E1EBF0E08081856080830895E6E9F0E0E8
S11303508FE790E7918380838081918101969093C8
S113036099008093980080819181019690939B00DD
S113037080939A00E1E9F0E080818C618083E1E779
S1130380F0E0808186608083089587E090E0909318
S1130390C5008093C40088E98093C10086E08093FF
S11303A0C20008959091C00095FFFCCF8093C600D1
S11303B00895CF93DF93EC0102C02196F3DF888187
S11303C08111FBCFDF91CF910895F89462E071E041
S11303D082E592E078D5892BD9F083DF8AE091E039
S11303E051DF85B18E7F85B985B18D7F85B987E968
S11303F090E0909389008093880090938B00809381
S11304008A0081E090E090934F0280934E0230C2C4
S113041067E171E082E592E056D5892BD9F061DF7E
S11304208EE191E02FDF85B1816085B985B182606D
S113043085B987E990E09093890080938800909330
S11304408B0080938A0081E090E090934D0280932A
S11304504C020EC26AE271E082E592E034D5892B47
S113046009F13FDF80E391E00DDF85B18E7F85B92F
S113047085B18D7F85B91092890010928800109201
S11304808B0010928A0010924D0210924C0210922E
S11304904F0210924E028FEF9FEF909301018093D1
S11304A00001E6C16CE371E082E592E00CD5892B92
S11304B0E1F117DF86E391E0E5DE80914E02909151
S11304C04F02892B39F480914C0290914D02892B73
S11304D009F4CEC180910001909101018F3F2FEF6B
S11304E0920789F4EAE8F0E08081918190934B02CD
S11304F080934A021182108281E090E0909301017E
S113050080930001B5C1019709F0B2C180914A02FC
S113051090914B0290938B0080938A008FEF9FEF12
S11305209093010180930001A3C161EC71E082E525
S113053092E0C9D4892BD1F1D4DE83E491E0A2DE28
S113054080914E0290914F02892B39F480914C0294
S113055090914D02892B09F48BC1809100019091F7
S113056001018F3F2FEF920779F4E8E8F0E08081F2
S1130570918190934B0280934A02118210821092CF
S113058001011092000174C1892B09F071C180919D
S11305904A0290914B0290938900809388008FEFD8
S11305A09FEF909301018093000162C161E571E0C6
S11305B082E592E088D4892B79F193DE89E591E094
S11305C061DE80918800909189008F3F910541F40C
S11305D080918A0090918B008F3F910509F448C166
S11305E080914E0290914F02019739F080914C0214
S11305F090914D02019709F03BC1E8E8F0E0808159
S113060091814A9691838083EAE8F0E08081918128
S11306104A96918380832CC162E671E082E592E080
S113062052D4892B79F15DDE8BE691E02BDE80914B
S11306308800909189008739910541F480918A005E
S113064090918B008739910509F412C180914E0273
S113065090914F02019739F080914C0290914D0294
S1130660019709F005C1E8E8F0E0808191814A979B
S113067091838083EAE8F0E0808191814A979183B5
S11306808083F6C06FE771E082E592E01CD4892B89
S113069049F027DE85E791E0F5DD98B181E089270F
S11306A088B9E6C066E871E082E592E00CD4892B53
S11306B009F44BC016DE8DE891E0E4DD8091480238
S11306C090914902009709F581E090E090934902E6
S11306D08093480290934702809346029093450288
S11306E080934402E6E9F0E08081918196958795B4
S11306F09093990080939800808191819695879535
S113070090939B0080939A00B3C0019709F0B0C006
S1130710E6E9F0E0808191810196909399008093BD
S1130720980080819181019690939B0080939A0018
S11307301092490210924802109247021092460207
S1130740109245021092440293C064E971E082E57C
S113075092E0B9D3892BD1F1C4DD8BE991E092DD2C
S11307608091480290914902019709F481C08091D7
S1130770460290914702892BD9F4E6E9F0E08081A2
S11307809181019690939B0080939A008BB18B7F0B
S11307908BB98081918196958795909399008093E8
S11307A0980081E090E0909347028093460260C0F5
S11307B08091960090919700019690939900809370
S11307C09800109247021092460252C06EEA71E0FD
S11307D082E592E078D3892BD1F183DD85EB91E03A
S11307E051DD8091480290914902019709F440C07B
S11307F08091440290914502892BD9F4E6E9F0E016
S113080080819181019690939900809398008BB197
S1130810877F8BB9808191819695879590939B0072
S113082080939A0081E090E0909345028093440283
S11308301FC08091960090919700019690939B0021
S113084080939A00109245021092440211C069EC00
S113085071E082E592E037D3892B51F042DD80EDDF
S113086091E010DDE4EBF0E0908181E7891B808367
S1130870789408951F920F920FB60F9211240BB61D
S11308800F922F934F935F938F939F93EF93FF93C5
S11308902091C600809150029091510282339105BB
S11308A05CF4AC014F5F5F4F509351024093500290
S11308B0FC01EE5AFD4F2083E0915002F091510269
S11308C0EE5AFD4F108281E090E090938502809370
S11308D08402FF91EF919F918F915F914F912F919E
S11308E00F900BBE0F900FBE0F901F9018951F9284
S11308F00F920FB60F9211248F939F939BB184E0B4
S113090089278BB99F918F910F900FBE0F901F90E5
S113091018951F920F920FB60F9211248F939F93E5
S11309209BB188E089278BB99F918F910F900FBE5F
S11309300F901F9018951F920F920FB60F921124CB
S11309408F939F9380918C0290918D020196909346
S11309508D0280938C029F918F910F900FBE0F9008
S11309601F9018951F920F920FB60F9211248F9318
S11309709F93039B0AC016BC10928D0210928C02A6
S1130980109287021092860214C086B590E090936C
S11309908B0280938A0280918C0290918D029093B5
S11309A089028093880281E090E09093870280938B
S11309B086029F918F910F900FBE0F901F901895F4
S11309C081B1846081B981B1877F81B982B18B7F24
S11309D082B9E8E6F0E0808181608083EBE6F0E0B4
S11309E080818860808308958AB180638AB984B1E4
S11309F0836084B908958AB18C608AB98BB18B7F86
S1130A008BB98BB1877F8BB987B1816087B9089522
S1130A108AB180648AB98BB180648BB9089582B13C
S1130A208B7F82B988E18A95F1F700C082B1846036
S1130A3082B986E38A95F1F7000082B18B7F82B98F
S1130A408091860290918702892BD1F3809188024C
S1130A50909189022FEF289FB001299F700D1124D6
S1130A6080918A0290918B02680F791F80E090E058
S1130A70E7D027E831E748E95EE347C10895CF931B
S1130A80DF93789487ED91E094DC2FEF3FE784E0E7
S1130A90215030408040E1F700C0000085EE91E035
S1130AA088DC9FEFEFE7F4E09150E040F040E1F79D
S1130AB000C0000084EF91E07CDC2FEF3FE784E08E
S1130AC0215030408040E1F700C0000082E092E015
S1130AD070DC9FEFEFE7F6E021E09150E040F0405A
S1130AE02040D9F700C0000082E292E062DC3FEFD0
S1130AF08FE794E0315080409040E1F700C000005F
S1130B0087E392E056DCEFEFFFEF2CE2E150F04098
S1130B102040E1F700C000001092510210925002F0
S1130B2062E270E082E592E0C3D1EC01892B39F0F6
S1130B30219662E270E0CE01BBD1FC011082D1DBD0
S1130B40CE01A0DBF894DF91CF910895CF93DF938A
S1130B50CDB7DEB72A970FB6F894DEBF0FBECDBF70
S1130B6014DCCADBD2DBE4DBF1DBA1DB3DDF43DFFA
S1130B704FDF2FEF8FEF9CE2215080409040E1F750
S1130B8000C000007CDF1CDF78942FEF8FE794E037
S1130B90215080409040E1F700C0000040DF6B012D
S1130BA07C0120E030E0A901ACD01816BCF420E0B0
S1130BB030E040EA51E4C701B6013ED0882374F422
S1130BC085B18E7F85B985B18D7F85B910928900F5
S1130BD01092880010928B0010928A008E010F5F91
S1130BE01F4F22E042E0C701B60143D17ADBC801BE
S1130BF049DB8091840290918502019749F4109217
S1130C00510210925002E1DB10928502109284028C
S1130C108091460290914702892B19F48BB1877F0A
S1130C208BB98091440290914502892B09F0ADCF94
S1130C308BB18B7F8BB9A9CF40D008F481E00895A4
S1130C40E89409C097FB3EF4909580957095619562
S1130C507F4F8F4F9F4F9923A9F0F92F96E9BB2718
S1130C609395F695879577956795B795F111F8CF94
S1130C70FAF4BB0F11F460FF1BC06F5F7F4F8F4FFF
S1130C809F4F16C0882311F096E911C0772321F0F5
S1130C909EE8872F762F05C0662371F096E8862F8D
S1130CA070E060E02AF09A95660F771F881FDAF7E4
S1130CB0880F9695879597F90895990F0008550F11
S1130CC0AA0BE0E8FEEF16161706E807F907C0F0CE
S1130CD012161306E407F50798F0621B730B840BD6
S1130CE0950B39F40A2661F0232B242B252B21F4B0
S1130CF008950A2609F4A140A6958FEF811D811D50
S1130D000895DBDF08F48FEF08950BD078C069D025
S1130D1028F06ED018F0952309F05AC05FC0112452
S1130D20A2C07ED0A0F3959FD1F3950F50E0551F3C
S1130D30629FF001729FBB27F00DB11D639FAA272C
S1130D40F00DB11DAA1F649F6627B00DA11D661F7B
S1130D50829F2227B00DA11D621F739FB00DA11D9C
S1130D60621F839FA00D611D221F749F3327A00D56
S1130D70611D231F849F600D211D822F762F6A2FF2
S1130D8011249F5750408AF0E1F088234AF0EE0F77
S1130D90FF1FBB1F661F771F881F91505040A9F784
S1130DA09E3F510570F014C05EC05F3FECF3983E67
S1130DB0DCF3869577956795B795F795E7959F5FEB
S1130DC0C1F7FE2B880F911D9695879597F9089585
S1130DD097F99F6780E870E060E008959FEF80ECEA
S1130DE0089500240A94161617061806090608958D
S1130DF000240A9412161306140605060895092EF3
S1130E000394000C11F4882352F0BB0F40F4BF2B61
S1130E1011F460FF04C06F5F7F4F8F4F9F4F0895A1
S1130E2057FD9058440F551F59F05F3F71F0479597
S1130E30880F97FB991F61F09F3F79F0879508957C
S1130E40121613061406551FF2CF4695F1DF08C09B
S1130E50161617061806991FF1CF869571056105B8
S1130E6008940895E894BB2766277727CB0197F960
S1130E700895EF920F931F93CF93DF93E80147FDFB
S1130E8002C034E001C034E1042E000C550B57FFBE
S1130E9003C0519541955109E32E022F242FAE0131
S1130EA02CD0CE01DF91CF911F910F91EF90089537
S1130EB0FC018191861721F08823D9F79927089599
S1130EC03197CF010895FB0151915523A9F0BF013A
S1130ED0DC014D9145174111E1F759F4CD01019021
S1130EE0002049F04D9140154111C9F3FB01411116
S1130EF0EFCF81E090E0019708958F929F92AF9297
S1130F00BF92CF92DF92EF92FF920F931F93CF93F2
S1130F10DF93CDB7DEB729970FB6F894DEBF0FBEC7
S1130F20CDBF6A01122FB02E2BE3201720F0FF242F
S1130F30F394F00E02C02CE3F22E0F2D27E0AE0145
S1130F404F5F5F4F50D1BC014981842F897081303C
S1130F5031F0E1FC06C0E0FE06C090E205C09DE26F
S1130F6003C09BE201C090E05E2D507143FF3CC082
S1130F70911102C083E001C084E0811718F4212F8D
S1130F80281B01C020E051110BC0F601822F30E272
S1130F90882319F031938150FBCFC20ED11C20E07D
S1130FA0992329F0D6019C93F60131966F01C6016D
S1130FB00396E2FE0AC03EE4D6013C9341E4119656
S1130FC04C93119712963C9306C03EE6F60130838B
S1130FD041E641833283FC01322F40E2332309F49A
S1130FE042C041933150FACF42FF44C0911102C034
S1130FF083E001C084E0811718F4212F281B01C06D
S113100020E051110BC0F601822F30E2882319F041
S113101031938150FBCFC20ED11C20E0992329F0DB
S1131020D6019C93F60131966F01C6010396E2FE48
S11310300BC039E4D6013C933EE411963C931197DE
S113104036E412963C9307C039E6F60130833EE657
S1131050318336E63283FC01322F40E2332319F028
S113106041933150FBCFFC01E20FF11D10828EEF52
S11310709FEFA6C021E030E0911102C020E030E0F3
S1131080161617061CF4FB01319602C0E1E0F0E0ED
S11310902E0F3F1FBB2021F0EB2DF0E0319602C054
S11310A0E0E0F0E02E0F3F1FE12FF0E02E173F07A6
S11310B01CF4121B212F01C020E08E2D887159F4DD
S11310C0F601822F30E2882319F031938150FBCF4F
S11310D0C20ED11C20E0992329F0D6019C93F6017D
S11310E031966F0151110BC0F601822F90E38823D2
S11310F019F091938150FBCFC20ED11C20E00F2D2B
S1131100060F9A81342F307144FF03C0913309F4E0
S11311100150101624F4093018F008E001C001E071
S1131120AB0177FF02C040E050E0FB01E41BF50B8C
S1131130A1E0B0E0AC0FBD1FEA0FFB1F8EE2A82EAA
S11311404B01801A91080B2D10E01195019511099E
S11311504F3FBFEF5B0721F4D601AC9211966D01AE
S1131160641775072CF08416950614F4818101C068
S113117080E3415051093196D60111967D01401703
S1131180510724F0D6018C936701E2CF64177507E9
S113119039F4963320F4953319F4311101C081E305
S11311A0F6018083F701822F90E2882319F091934E
S11311B08150FBCFF701E20FF11D108280E090E037
S11311C029960FB6F894DEBF0FBECDBFDF91CF9145
S11311D01F910F91FF90EF90DF90CF90BF90AF9051
S11311E09F908F900895283008F027E03327DA0184
S11311F0990F311D87FD916000966105710539F4E1
S113120032602E5F3D9330E32A95E1F708959F3FC6
S113121030F080387105610509F03C5F3C5F3D9317
S1131220913008F08068911DDF93CF931F930F9343
S1131230FF92EF92192F987F9695E92F96959695A0
S1131240E90FFF27EA51FF4F99273327EE24FF24A4
S1131250A701E70105900894079428F4360FE71EC8
S1131260F81E491F511D660F771F881F991F06948A
S1131270A1F70590079428F4E70EF81E491F561F9E
S1131280C11D770F881F991F661F0694A1F705904B
S1131290079428F4F80E491F561FC71FD11D880F45
S11312A0991F661F771F0694A1F70590079420F4F1
S11312B0490F561FC71FD81F990F661F771F881F16
S11312C00694A9F784911095177041F0D695C795A7
S11312D057954795F794E7941A95C1F7ECE8F0E031
S11312E068941590159135916591959105907FE2DB
S11312F07395E118F10A430B560BC90BD009C0F7DB
S1131300E10CF11E431F561FC91FD01D7EF470331C
S113131011F48A95E6CFE894015030F0080F0AF4EE
S11313200027021708F4202F2395022F7A3328F080
S113133079E37D932A95E9F710C07D932A9589F680
S1131340069497956795379517951794E118F10AC0
S1131350430B560BC90BD00998F023957E917395D6
S11313607A3308F070E37C932013B8F77E917061B0
S11313707D9330F0839571E37D9370E32A95E1F7D3
S11313801124EF90FF900F911F91CF91DF91992736
S10D139087FD90950895F894FFCFAF
S113139AFFFF696E61696E7465004D65727320EEB4
S11313AA6E61696E746500696E61706F69004D657E
S11313BA727320EE6E61706F69006672616E61000D
S11313CA4672E26E3F00566972616A207374616EF6
S11313DA676100566972616A20647265617074613A
S11313EA0073706565647570005370656564205593
S11313FA7000736C6F77646F776E00536C6F77202D
S113140A446F776E00417072696E64657265206616
S113141A6172757269006176617269690041766107
S113142A7269690073656D5F73740053656D6E61EB
S113143A6C697A617265207374E26E676100736520
S113144A6D5F64720053656D6E616C697A61726571
S113145A206472656170746100636C61786F6E00F8
S113146A436C61786F6E0041542B43574D4F44458A
S113147A3D310D0A0041542B4349504D4F44453DDB
S113148A300D0A0041542B4349504D55583D310DF6
S113149A0A0041542B43574A41503D2247616C612B
S11314AA7879222C22313233343536373839220DC1
S11314BA0A0041542B4349505345525645523D3133
S11314CA2C3130310D0A0041542B434950535441B5
S10714DA3F0D0A00B4
S9030000FC
